:020000040800F2
:10000000900E0020496600085164000853640008FF
:100010005564000857640008596400080000000097
:100020000000000000000000000000005B64000809
:100030005D640008000000005F640008616400085F
:10004000596600085D660008636400086166000880
:100050006566000869660008696400086F64000846
:100060006D6600087166000875660008796600080C
:100070007D660008816600088566000875640008D2
:10008000896600088D66000891660008956600087C
:10009000996600089D6600087B640008A166000858
:1000A000A5660008A9660008AD660008B1660008EC
:1000B000B5660008B9660008BD660008C16600089C
:1000C000C5660008C9660008CD660008D16600084C
:1000D000D566000881640008D9660008DD6600085E
:1000E000E1660008E566000887640008E966000824
:1000F000ED660008F1660008F5660008F96600087C
:10010000FD660008016700088D64000805670008A7
:10011000096700080D6700081167000815670008E7
:10012000196700081D670008216700082567000897
:10013000296700082D6700081CB5DFF84C4CE06506
:10014000002060706060A060A0650FF6B52001F02F
:10015000D5F90021A18101F046FB0021002001F02A
:1001600054FD04220021012001F0FBFB4FF6FF713A
:1001700000F079FC00F04AFC022001F015FF00209D
:10018000009000220FF651234FF0FF3104F1600080
:1001900001F01CFF0020009000220FF651234FF0C9
:1001A000FF3104F1780001F011FF00F0F8FD04F1D7
:1001B0007800BDE8164001F061BF80B501F0CDF9CF
:1001C000042804D0052804D0072804D005E0022024
:1001D00002BD012002BD032002BD002002BD0000BF
:1001E00070B5DFF8A45B04462C7002F030F8052CE3
:1001F00004D8DFE804F025050320202503201BE0B8
:10020000012001F09EFB2C7B687BA0420BD06C731D
:1002100000F0D9FC012C40F2417607D100F0CEFC71
:10022000442100F0B4FD687B687370BD142100F0B8
:10023000C6FC2421F5E7022001F083FB0020F3E750
:100240000020F9E701F057BB2DE9FC4705468A4637
:100250009046994600F0E1FB00F05CFA284601F078
:100260004AFBDFF8245BDFF8DC6C01246C7001F0E2
:10027000E4FFFF20307005F13807002001F093FA09
:10028000002038704FF4167179600B223A73504693
:1002900001F0CDFD787318210020A8732982042075
:1002A000A874E974002028756C753078A875EC7511
:1002B0002C7600F0B2FB00F02DFA384601F0D0FBAE
:1002C00000F098FB684600F061F900F09BFF00F039
:1002D00069F90020A86001F0B1FF012802D101F006
:1002E000B3FF04E040F26220002300F085FE00200E
:1002F00038620021B87F01F032FD687801280EBF16
:100300006FF07F40A868800101F0F5F901F04DFD24
:10031000C01C01F049FE01F031FF0546284601F0FE
:1003200035FF484504D201F079FC8045F6DA002417
:1003300000F073FB2046BDE8F68780B5002300225D
:100340000021002001F0ABFABDE8014001F06FB9D7
:100350002DE9F84F86B0DFF8304A199F129D67707B
:1003600006468846924601F068FF012F08BF002527
:100370009DF84C00019001280CBF1499FF21DFF873
:10038000C42B119F1170CDF800803000A168DDF8FA
:1003900054804FEAC70B04F13C0604F1210960D0F8
:1003A000012800F09780052840F0E880012001F046
:1003B000FAF900F0FBF8092131724FF448707060CF
:1003C00040F6B807009801F032FD7072002100205D
:1003D000A073A174A1821020DFF8681BA4F810B0EC
:1003E000E07401200A78E0750021A27521760520CD
:1003F000FFF7F6FE00F086F900F080F90DF110002D
:1004000060A1082201F024FF04A801F0CCF800F05C
:10041000C9F800F0C5F800F0EF0100F0BFF80421C2
:1004200040F6B90000F097FB40F69B0700F0B8F8E3
:1004300000F0E30040F0080100F0B0F840F2D167AE
:1004400000F0AEF840F0180100F0A8F840F2AC67F8
:1004500000F0A6F800F08F0040F0500100F09EF888
:1004600032E001F0A0F900F0A1F80B213172009800
:1004700001F0DDFC707204210020A073A17418202B
:10048000E07400210198A4F810B0217501280CBF78
:10049000002001206075B8F1010FDFF8A80A01788B
:1004A000A1750CBFF220012000F030F900F032F904
:1004B00000F028F900F022F902A800F067F802A87D
:1004C00001F071F800F06EF84FF4FA504543B5FBB7
:1004D000FAF153E09DF818B0002001F064F9012012
:1004E00089F8170086F814A000980FF254310A5CBE
:1004F000727586F816B0009818B9BAF10B0F02D1D0
:1005000004E0012804D1BAF10C0F01D1012000E070
:10051000002000F0EDF818BF062802D10C2FB8BF5C
:100520000C279DF84C10DFF81C2AA783A177189898
:100530001378E37789F8000084F8208000F06DFAE2
:1005400000F041FB00F0DEF800F0D8F8E8B201F06E
:100550002FF999F8000040F236750128284604D199
:1005600001F0C2FB00F0FB0103E001F0BDFB40F035
:100570000401284601F0B2FB4FF6FF71A16007B0FD
:10058000BDE8F08FB22700000000000001A10822A2
:1005900001F05EBEC194C100000000003846DAE2FE
:1005A0003846DAE240F2FF1001F025B8002089F861
:1005B0001700C6F800A070472DE9F74F82B00E9FD4
:1005C000109DDDF84490DDF848A0DFF8BC47984660
:1005D00001F033FE9DF8080004F13C0604F1210B04
:1005E00020B1012835D0042868D071E000218BF8B3
:1005F000171037600B203072ED00404601F017FCF9
:100600007072002104987060A17325820420A07488
:100610001821E17400202075B9F1010F18BF0120E5
:100620006075BAF1010F0CBFF220012000F06EF8E6
:1006300000F070F800F066F800F060F84FEA0D0086
:1006400029A1082201F004FE00F0DCFDFFF7AAFF5B
:100650003EE00F987AA201218BF817103775B8F198
:10066000000F12F808107175B07502D10B2F03D16D
:1006700004E0B8F1010F03D10C2F01D1012000E0FB
:10068000002000F035F818BF062802D10C2DB8BFA5
:100690000C251598DFF8AC18A58384F81E900A780D
:1006A000E2778BF8000084F820A000F0B6F900F0A3
:1006B0008AFA00F027F800F021F809E0FFF790FD32
:1006C00002208BF81700F7601621317400F01AF839
:1006D000169D9DF90C0001F055FBB07601F0B2FDBE
:1006E000656005B0BDE8F08FC194C1000000000056
:1006F000F0750120A073307D0528704704F10E00CD
:1007000001F01ABA04F1380001F0AAB9E07501202D
:10071000207682E1002063E5012070472DE9F84250
:100720001446079D089EDDF82490DDF828C00022BD
:1007300001274FF47A7E10B101280FD07AE006B974
:100740000822BCF1010F08BF0220A944484402EB73
:10075000C00218320EFB02F227466BE01B1D052C6F
:1007600018BF062C02D10C2DB8BF0C25080002D1F1
:100770000B2C02D103E0012802D10C2C00D1012264
:10078000BCF1000F18BF4FF0100C002E14BF002654
:1007900014260CEBC90C6FF0030101FB04CCA10083
:1007A000062CB44404D90CF1080C0AB1A11E89002E
:1007B000BCF1000F48BF4FF0000C8C44ACF10106B7
:1007C00096FBF1F203FB02520C32062C98BF921CEE
:1007D0009200A11E1AA4205C521C07FA01F3002704
:1007E0005A430A280EFB02F224D8DFE800F0211B4E
:1007F000150F0C0906231E181200DFF8087C19E0FB
:10080000DFF8047C16E0DFF8047C13E04FF22447A5
:1008100010E04AF2C3270DE047F612270AE045F23E
:10082000611707E043F6095704E042F6B10701E01B
:1008300041F68467BA18521EB2FBF7F0BDE8F282A7
:10084000040506002DE9F84F04460E4640F201204B
:10085000DFF8345500230022014605F1510701F06D
:100860001EF8787900F0E0FB287840F68908012826
:1008700004BF3978062905D1404601F035FA00F069
:10088000FB0104E0404601F02FFA40F0040140462D
:1008900001F024FA2878042800F2A180DFE800F0B3
:1008A0000503051F2800EE771CE001F0C7FC0128B6
:1008B00013D16A463146204601F0C5FC40B99DF887
:1008C0000000A87500F096F89DF8001000220DE0D9
:1008D0000FF6803300F041FB8AE0AE7502E00220A3
:1008E000A873AE7600F086F800223146204674E008
:1008F0004FF0000C0020DFF8188B002205E0215C8F
:10090000C943215408F80020401CB042F7DB96464A
:10091000F70027E04FEAAE030EEB5373DB105FFAEC
:1009200083FA0EF10100811014F80AB0CEF1070E1F
:1009300000EB51710EEBC303C9102BFA03F3CAB2DB
:1009400003F0010383EA0C0CC0F1070A18F8023027
:100950005FFA8CF90AEBC10109FA01F1194308F8B1
:1009600002108646BE45D5DB5FFA8CF000280CBF2E
:10097000202000204FEA8C1141EACC11084308F8EE
:100980000600761C0220A873AE7600F033F8002132
:10099000F12000F0E0F80021F02000F0DCF8A86C75
:1009A000642805D17021F32000F0D5F81D2104E062
:1009B000E121F32000F0CFF80421F22000F0CBF881
:1009C000BF1C390AF42000F0C6F8F9B2F52000F097
:1009D000C2F86FF07F42F1B2404600F0D9FD69687D
:1009E00005F1600001F075FB05F1600001F007FB07
:1009F000BDE8F18F05F10E0001F09EB880B500F062
:100A000005F8BDE80240022001F0CEBA0FF6B02092
:100A1000007840F0040000F03ABE002000F04FBE25
:100A200038B5044601F00AFC012802D101F00CFCA3
:100A300001E000F016F8DFF8DC592CB100F039F8CD
:100A400005F1780001F0DBFA00F038F86878012849
:100A50000EBF6FF07F40A8688001BDE8324000F013
:100A60004ABE40F2622100230022084600F017BF70
:100A700038B5044601F0E2FB012802D101F0E4FBA5
:100A800001E0FFF7EEFFDFF88C592CB100F011F810
:100A900005F1780001F0B3FA00F010F86878012849
:100AA0000EBF6FF07F40A8688001BDE8324000F0C3
:100AB00033BE214605F1780001F00BBB0020A8658C
:100AC000002195F8560001F04AB970B504460D466C
:100AD000DFF8406905EB4400B06500234FF6FF7076
:100AE00000F08AFA96F85600002101F038F92946FC
:100AF0002046BDE8704000F028BE80B5DFF814093C
:100B000090F85600002101F02AF94FF4C071FFF768
:100B1000AAFFBDE8014000F033BE38B50C461546CB
:100B200000F0E9FE204601F02DF900F07DFA00F01A
:100B300032FE4FF47A70DFF8DC484543294604F171
:100B4000600001F0C6FA04F16000BDE8324001F037
:100B500056BA01F063B801F0C1B801F0C5B801F0B0
:100B6000D0B801F0D4B8DFF8DC23DFF8A8380128CA
:100B700008BFD97703D0587D012805D19975117028
:100B800003F10E0000F0D8BF704738B50446DFF817
:100B900084080473447300F016F8012C40F2417588
:100BA00003D100F00BF8442103E0142100F007F812
:100BB00024212846BDE8344001F090B834214FF498
:100BC000E86001F08BB80120FFF70ABB80B501F0A7
:100BD000ECF8C01C02BD0000DFF83808C06D18B189
:100BE0004068002818BF004770470000DFF824085D
:100BF000C06D18B1C068002818BF004770470000DA
:100C00007CB5DFF8104804F12405002128868DF812
:100C10000010019140F60216288E012800F0A280F3
:100C2000022800F0838004283FD0082834D0102800
:100C30002ED020281AD0402808D080286BD0B0F5BC
:100C4000807F5ED0B0F5007F37D073BD0FF66003B4
:100C500000F0A9F8607808B900F031FDA86B002811
:100C60001CBF0069002800D0804773BD00F071F9F7
:100C7000607808B900F023FDA86B00281CBFC0688D
:100C80000028F2D080470FF61C030122002102E069
:100C90000FF6040301226BE10FF2F07300F083F80A
:100CA00001F0CCFA01286DD15FE10FF2D47300F0AE
:100CB0007AF8696B002965D07BE10FF2B07300F020
:100CC00072F800F04AFC04280BD100F068F800F03C
:100CD00049F9A86B00281CBF4068002852D0804703
:100CE00073BD00F03AFC05284CD100F032F900F059
:100CF00039F9A86B00281CBFC068002842D0804783
:100D000073BD00F02FF9A86B00281CBF8169002972
:100D100038D0012008E000F025F9A86B00281CBF9E
:100D2000816900292ED00020884773BD00F011F999
:100D3000607838B900F0C3FC00F028F800F004F93E
:100D400000F028F800F0F7F8284600F08EFFA86BB6
:100D500000281CBF8468002C14D02878012800D1FA
:100D600009E111E100F01BF800F0FCF801F068FA6D
:100D7000012808BF01F069FAA86B00281EBF0068AF
:100D80000028804773BD0000680400200021304621
:100D900000F0A4BF40F00201204600F09FBF04F124
:100DA000600001F06BB90122022001F074BA7CB539
:100DB0000021DFF860468DF8001004F124050022C0
:100DC000298E0192012940F6021618D0022928D056
:100DD00004297BD0082900F08180102900F0878049
:100DE000202900F08780402900F09680802934D0A7
:100DF000B1F5807F3BD0B1F5007F43D073BDFFF7E5
:100E0000CEFF00F0AFF801F01BFA012808BF01F097
:100E10001CFAA86B00281CBF0068002800D080477F
:100E200073BD00F096F8607838B900F048FCFFF721
:100E3000ADFF00F089F8FFF7ADFF00F07CF8284621
:100E400000F013FFA86B00281CBF8468002C71D031
:100E50002878012800D18EE096E000F083F8A86B96
:100E600000281CBF8169002964D0002008E000F040
:100E700079F8A86B00281CBF816900295AD001208D
:100E8000884773BD0FF2E45300F067F800F065FB8C
:100E900004280BD1FFF783FF00F064F8A86B00284B
:100EA0001CBF4068002845D0804773BD00F055FB4B
:100EB00005283FD100F04DF800F054F8A86B002849
:100EC0001CBFC068002835D0804773BD0FF2B053F7
:100ED00000F043F8696B00292CD06AE00FF2AC53A4
:100EE00000F03BF801F0AAF9012823D13DE00FF210
:100EF000A8530EE000F02DF8607808B900F0DFFB91
:100F0000A86B00281CBFC068002813D080470FF2D0
:100F10009453012200212BE00FF2945300F01DF8AE
:100F2000607808B900F0CBFBA86B00281EBF0069F1
:100F30000028804773BDDFF8D864FF226946304639
:100F400000F00FBB4C00002040F64414204600F097
:100F5000CBBE04F1780001F091B8012200210220FB
:100F600001F099B9002000F0AABB01F06FF973BD40
:100F7000FFF71AFF73BD95F90D3095F90C209DF818
:100F800000103046A04773BDA86901A900F066FFB4
:100F90000198AC6B95F9052000F5FA704FF47A7161
:100FA00090FBF1F39DF80010A5685BB23046A847AE
:100FB00073BD0902090E40F60310FFF7CCFD696B03
:100FC0000904090E40F60410FFF7C5FD696BC9B2AC
:100FD00040F60510FFF7BFFD3046FFF7BEFD40F0BD
:100FE00001013046FFF7B7FD00206863002340F29F
:100FF000622000F001F873BD0022014600F04FBCF2
:1010000080B5DFF8100490F8560000F00DF82D219F
:101010004FF4D760FFF79FFD00F0C1FBBDE8024031
:10102000DFF8F40300F05BBB012100F098BE80B54F
:1010300000F0A8FEFFF7F8FFBDE8014000F0ABBBF1
:101040002DE9F84785B00D460021CDE9001106468F
:1010500014469A4601F0F1F8002C1ABF4FF0000A2E
:1010600001200020DFF8AC4304F13C07607004F17C
:1010700021084FF0FF0916B1012E64D0BBE0A8682B
:1010800000281CBFE868002861D0AA7F082A5EDC1F
:10109000296900F0C9F9286800F0AFF8002088F845
:1010A0001700A968396095F820003872686800F068
:1010B000BEFE78720020A073E968C8002082E97F34
:1010C000A17405F12101A87FC000E0740A7822759F
:1010D000487808B9D5F8149084F81690C878022892
:1010E0001CBF4A78022A11D18878F1281CBFF22847
:1010F00001282CD100218DF81010039504F17802FD
:1011000000F097F918BB0121002200E089782076D1
:10111000E1756275FFF781FCFFF7FCFAFFF7F2FA61
:10112000FFF7ECFA00F06EF8A88B00F064FA288B59
:1011300000F04DFA4FF4FA50A96800FB0AF0B0FB3A
:10114000F1F1A16057E005F12806308910B94FF0A0
:10115000FF3051E0B07A012808BFD5F8149030680C
:1011600000F04BF85FFA8AF000F022FB012088F8CB
:1011700017003179397570797875B179B975F07969
:1011800058B1022801D005D309E030790B2818BFE7
:101190000C2802D10120F87501E00021F975012029
:1011A000A07340F236753189A183B07AA07784F8B4
:1011B0001F90307B84F82000717B88F80010FFF7C7
:1011C0002CFCFFF700FDFFF79DFAFFF797FA98F860
:1011D00000000128284604D100F086FD00F0FB0144
:1011E00003E000F081FD40F00401284600F076FDA8
:1011F0004FF6FF70A060002001E100B10120C0B2F5
:1012000000F0D1BA684600F0CEB900002DE9F847E9
:1012100085B00C460021CDE90011824690469946E2
:1012200001F00BF87B4EBAF1030F06F13C0706F113
:10123000210500F2DB80DFE80AF04286C502A27CCD
:10124000082A5FDC00F0EFF82068002839D042F26D
:101250001171884206D238604FF0020AE07C032107
:10126000032208E038604FF0000A2368E07C9B0806
:10127000002100227B60B173EA7538720422606835
:10128000B274C100318200F0DCF81CBF217D02295C
:1012900010D1607DF1281CBFF228012832D10294C0
:1012A00001218DF8101000F0C2F800282AD1012287
:1012B000002100E0627D00F0B1F8504632E0206885
:1012C000002800F08580A27C082A1BDC00F0ABF827
:1012D0000020E875042221683960E07C3872002023
:1012E000A1697960B0736168B274C800308200F09F
:1012F000A8F81CBF217D022910D1607DF1281CBFF8
:10130000F228012864D101218DF81010029400F018
:101310008EF800285CD10122002100E0627D00F0FF
:101320007DF80020FEF75CFF00F087F806F10E0064
:1013300000F002FCFFF766FF208A00F05CF9A0894C
:1013400000F045F952E00120E875217839756078A0
:101350007875A178B975E07858B1022801D005D325
:1013600009E020780B2818BF0C2802D10120F8755D
:1013700001E00021F9750120B073A188B183A07943
:10138000B077E17986F82010207A287040F6890439
:10139000FFF7E8FDFFF717FC00F04FF806F10E002D
:1013A00000F0CAFB787D0628204604D100F09CFCA2
:1013B00000F0FB0103E000F097FC40F00401FFF7B0
:1013C000EBFC13E0206818B140F2E931884202D307
:1013D0004FF0FF3013E00320FEF702FF0220E87514
:1013E000162021683874F96000F027F8404600F0B4
:1013F000C9FCB87600F026FFC6F80490002006B0BD
:10140000BDE8F08720A1070090D0030048E8010064
:101410006803002068040020FFFF0F003076F2759B
:101420007175FFF7FABAA168684601F055B806F180
:101430006002396A02A800F0FFBE06F1380000F031
:101440000FBB0021A07C3175C000F074A07D022884
:1014500070470000526164696F53656E64204F7677
:10146000657273697A650D0A000000004952515F88
:1014700052585F54585F54494D454F55540D0A001A
:10148000505245204F4B0D0A0000000053594E4367
:10149000204F4B0D0A000000484452204F4B0D0ACC
:1014A00000000000484452204B4F0D0A000000008D
:1014B0004952515F4352435F4552524F520D0A0009
:1014C000000030B5016884684218416802EB51039E
:1014D000C90703D54C4401E0491C08D19A4218BF02
:1014E00012F9011B01D10C3030BD12F8015B00294B
:1014F00004F8015BF0D4491EF7D5EFE738B5DFF803
:10150000CC49010018BF606000F0F8FF022000F035
:101510007AFC0020607040F6111500F0D0F801F060
:1015200019F801280BD14FF4207100F0D3F90021F4
:10153000284600F0D3FB7F2000F066F908E0202168
:10154000284600F0CBFB202140F6121000F0C6FB2D
:1015500000F0FAFF0120207031BDDFF8700900783B
:1015600070477CB51646002204460D468DF80020D3
:101570006946284600F05EFB2A78964201D2012097
:1015800076BD9DF80000214600F0CFFB002076BD1F
:1015900010B514460A460146002000F0C0FB204664
:1015A000BDE810409BE080B5014608224FF4D860AA
:1015B00000F0A7FB002002BD80B500F013F828B9A9
:1015C0000222694640F2BC6000F09BFB01BD80B581
:1015D00000F008F828B90222694640F2BE6000F027
:1015E00090FB01BD020A8DF800208DF80100DFF8A4
:1015F000E0281078704710B5DFF8D4180446087852
:10160000A0B94FF4D76000F06FFB220A02F001028C
:1016100000F0FE0111434FF4D76000F05FFBE1B230
:10162000BDE8104040F2B96000F058BB10BDF8B5FD
:101630000021009140F6E204204600F055FB0546EB
:1016400005F0FE01204600F049FB40F6E506304675
:1016500000F04AFB074607F07F01304600F03EFBF2
:101660006FF07F4000F047F80422694640F6190009
:1016700000F04DFB002000F022F82946204600F043
:101680002DFB3946304600F029FB0098F2BD01B52C
:1016900082B0002000F05AFF022000F0B4FB9DF859
:1016A000080000F007008DF8000001226946842040
:1016B00000F049FBDFF814180020087007BD01B5E1
:1016C00001226946802000F03EFB9DF800000028C2
:1016D0000CBF01200220DFF8F417087001BD1CB513
:1016E000DFF8E8278DF80200042100F00DF803224E
:1016F0006946832026E01CB5DFF8D0278DF802006C
:10170000052100F001F81AE0030C11708DF800308B
:10171000040A8DF8014070471CB5DFF8B037052288
:1017200004461A70972140F6AC0000F0D7FA210C5D
:10173000220A8DF800108DF801208DF80240032256
:101740006946822000F0FFFA13BDE0B5030A8DF868
:1017500002008DF80130020C080C8DF800208DF885
:1017600003000B0A8DF805108DF804300622694637
:10177000942000F0E8FADFF854070621017007BD55
:1017800080B500220021C52000F0DDFADFF83C071B
:101790000721017001BD00220021D120D3E20022E7
:1017A0000021D220CFE201B5012269469F2028E026
:1017B00001B501226946A02000F0C5FA9DF800009D
:1017C00040280FDB4008002101E08008491CC2B21C
:1017D000202AFADAD20052FA81F0C1B240F2067041
:1017E00000F07CFA01BD80B500F0B6FE012807BF0D
:1017F00001218DF8001000228DF800200122694699
:10180000962000F0A0FA01BD01B582B001229DF83A
:10181000080000F07F008DF800006946892000F084
:1018200092FA07BD80B5DFF8AC269042694604D332
:10183000E1208DF80000E92222E0DFF89C36984292
:1018400004D3D7208DF80000DB2219E0DFF88C36B6
:10185000984204D3C1208DF80000C52210E0DFF8C3
:101860008036984204D375208DF80000812207E06D
:10187000DFF87036984204D36B208DF800006F2299
:101880004A7002229820BCE780B58DF8000000F075
:1018900053F88DF80330042269469520B1E738B536
:1018A0008DF80310050A8DF800508DF801008DF8B1
:1018B00005200D0A110A8DF804108DF80730190A59
:1018C0008DF806108DF8025008226946082000F0B5
:1018D0003AFA23BD80B500F007008DF800000B0A2E
:1018E000080C8DF801008DF803108DF802300422E9
:1018F0006946972085E738B5DFF8D0550446687803
:1019000020B92046FFF78EFF01226A70E1096006C8
:10191000DFF8D425002300F023FE010C020A00F0BA
:101920000BF88DF80300040E8DF800400422694680
:10193000862000F008FA31BD8DF801108DF80220E4
:10194000704701B5DFF8882510709DF8000020B9B8
:10195000002140F2AC6000F0C1F9012269468A2002
:101960004FE7F8B501280D46144640F6E7062AD1A0
:10197000002000F0F3FD0746AF42B8BF3D460E2FF2
:1019800006D10123012200210420FFF77DFF12E090
:101990000A2F07D10123012200210120FFF774FF44
:1019A000ED1C08E00123012200210620FFF76CFF57
:1019B000C7F10E07ED1968B210F1110FB8BF6FF043
:1019C000100518213DE040F6D807384600F08CF9A4
:1019D00040F01E01384600F081F9012000F0BEFD04
:1019E0000746AF42B8BF3D46142F07D1012300225E
:1019F00005210320FFF748FFAD1C1BE0112F07D185
:101A00000123002203210220FFF73EFF6D1D11E09C
:101A10000E2F06D10123002202210220FFF734FFFE
:101A200008E00123002207210420FFF72DFFC7F162
:101A30001607ED1968B210F1090FB8BF6FF008056D
:101A40003821304600F04AF9EDB28DF800508DF89B
:101A50000140022269468E2000F075F9F1BD0000B8
:101A60003EB50021CDE900110546DFF86414287861
:101A70000A78824218BFFFF764FF2878032846D807
:101A8000DFE800F0022C243A6868DFF86014B1FB4C
:101A9000F0F0020C010A8DF802008DF800208DF89C
:101AA00001100023287BDFF8402400F031F8A868FB
:101AB000C109400600F054FD050C040A8DF80550DC
:101AC0008DF806408DF8070008221CE0296900F017
:101AD00025F80422287D8DF8030014E0287E8DF877
:101AE00000000422697E8DF80110A87E8DF80200A6
:101AF000E97E8DF8031006E0696800F00FF8052212
:101B0000287B00F005F869468B2000F01CF937BDF2
:101B10008DF80300697B8DF804107047DFF8CC0363
:101B2000B0FBF1F0020C030A8DF802008DF80020E2
:101B30008DF80130704700003EB504460921684623
:101B400000F092FDDFF8885320782978814218BF91
:101B5000FFF7F7FE207803283BD8DFE800F00240CB
:101B60003B02607AF12809D14FF6FF70FFF724FDA0
:101B700048F20500FFF72BFD02200AE0F22808D109
:101B800041F60F50FFF718FD41F22100FFF71FFD4E
:101B900006206188090A8DF80010092261888DF8F5
:101BA000011023798DF8023061798DF80310A37943
:101BB0008DF80430E1798DF80510237A8DF807004F
:101BC0008DF80630A07A8DF8080069468C2000F068
:101BD000BAF837BD207B8DF800000122F5E7E089D7
:101BE000000A8DF800000622E0898DF80100207CB3
:101BF00068708DF80200607C8DF80300A17C8DF880
:101C00000410E07C8DF80500DFE780B58DF800005A
:101C10008DF80110022269468F20F2E580B501227D
:101C20006946152000F095F89DF800004042C00577
:101C3000001602BD38B504460D460222694613203F
:101C400000F087F8A2480178012904BF40780128F4
:101C500004D140F2027000F047F801E09DF8000066
:101C600020709DF80100287031BD1CB50446032288
:101C70006946142000F06DF895480278227012B180
:101C8000012A10D021E09DF80000207100219DF86C
:101C9000012052425210A2719DF80200A160404200
:101CA0004010607113BD9DF8002052425210227303
:101CB0009DF90120921C921062739DF80210494216
:101CC0004910A1734068206113BD142200212046F1
:101CD00000F00DFC0F20207013BD000002B500F0D5
:101CE0000BF800F010FD01BD80B500F005F800F024
:101CF00038FD9DF8000002BD014601236A467C487C
:101D0000704710B500F017F800F0FDFC04E010B5C6
:101D100000F011F800F025FD84F3108810BD10B517
:101D200000F009F800F0BCFDF6E710B500F003F88C
:101D300000F0E9FDF0E71346EFF3108472B60A46AF
:101D400001466B48704710B5FFF7F5FF00F038FD0E
:101D5000E2E710B5FFF7EFFF00F063FDDCE710B539
:101D60000124012909D1012804D1042000F04BF8F5
:101D7000022402E0022808BF03242046BDE81040E8
:101D800000F0E4BB38B5044600F0E2FB012510B1D9
:101D9000022802D002E0102C00DB0225022221469C
:101DA0002846FFF7DEFD284632BD0A207047474926
:101DB0004A680120104745494A68022010474349B4
:101DC0004A68402010474148426811B1012902D0B9
:101DD0007047802010474FF4807010473B494A6895
:101DE0004FF40070104739494A682020104737499E
:101DF0004A680420104735494A680820104733498B
:101E00004A681020104738B5044600F0A5FB0128A9
:101E10000CD140F623152846FFF766FF00F0F900C5
:101E200044EA00012846BDE8344057E731BD10B50B
:101E300008B91F2010BD00212E4ACBB252F8334002
:101E4000A04204D3491CCBB2162BF6D303E002EB1D
:101E5000C300007910BDFEE7000000007CB500BFA4
:101E600026A21368009305460C4640F60700FFF7CC
:101E70003BFFC0F3C10300F007001DF8032001235E
:101E8000401E834018495A43B1FBF2F6B6FBF5F108
:101E90000122082938BF02225143042938BF0422F5
:101EA00056434FF4D660FFF71FFF050240F2B160C2
:101EB000FFF71AFF05F470650543290544BF0E4876
:101EC000054376096E43F611266073BD6006002057
:101ED0006806002001E9A43581F8A9328144E52D86
:101EE000010B6B1B41FC54190048E8010000093D3F
:101EF000540600209C62000800F0FFFF04080A0C52
:101F000080B52748016821F40041016000F058F8CD
:101F100024490120087000F034FE00F0A5F90FF20A
:101F2000290000F017FA022000F017FA00F064FE12
:101F30000121012000F06DFEBDE8044001210120D7
:101F400000F05FBE704700003EB504460D4601A894
:101F500000F0A0FEBDF90800DDF8043015A20090E5
:101F60001021204600F00BF8204600F0C1FE28802A
:101F700037BD012100E00021022000F042BE08B47C
:101F800000B501AB00F0BEFE5DF808FB0020704715
:101F9000044A11780020002918BF01F042B87047A8
:101FA000080000588506002081B001B4009802B0F6
:101FB00001F050B8256473253033643A0000000006
:101FC0009849994A0020086013681847F8B504003A
:101FD00015461E4611D030000FD0069F002020600D
:101FE000084600F048F86060E66000202761E5726E
:101FF00020726072A0726061F2BD0120F2BD2DE915
:10200000F0410446002594B300F0CEF8002804BF48
:10201000607A00282BD1EFF3108672B6824FD4F885
:102020000480386A8047404538BF40462060012020
:1020300060722572A572DFF8EC81D8F8000018B93B
:102040003869804720460AE0B8698047216840180F
:102050002060D8F8002013689842204602D200F091
:10206000D7F801E000F0C1F886F3108800E0012500
:102070002846BDE8F0816C494A6A1047F8B500244B
:1020800020B3EFF3108572B6664E3268012713460F
:1020900011468772BAB1824244720BD150691472F0
:1020A00018B1306000F08BF80DE05F48C1688847D8
:1020B000346008E0814204D00B4649690029F9D117
:1020C00001E04869586185F3108800E0012420464A
:1020D000F2BD38B50446084600250CB901250DE0CF
:1020E000FFF7C9FF6060204600F05EF830B120467F
:1020F000FFF7C4FF2046FFF782FF0546284632BDA2
:10210000F8B5EFF3108572B6474E464F70698047B9
:10211000316904468847041B386860B301688C4203
:1021200034BF091B0021016040690028F6D13968DD
:10213000086828B1B069804739680A68824214D2B9
:102140003C68606938600021217261722069E16831
:102150008847E07A012801BFA07A00282046FFF7CF
:102160004EFF38680028E2D105E021B1087A10B9A5
:10217000084600F024F885F31088F1BD10B52A4C0C
:10218000E0698047A16ABDE81040084770B5264D58
:102190000446E86980470646696A20468847AA6A75
:1021A000301ABDE8704010471E49096800E04969CF
:1021B00019B18142FBD10120704700207047F8B56A
:1021C000194D0446286A8047012121720646AF69ED
:1021D000B84721683018814202D2B84736182660C5
:1021E0002068A968BDE8F440084710B50D490A68A1
:1021F000536901E01A465B69516931B11C68016895
:102200008C42F7D35061436110BD5061416110BDF4
:10221000044A116809B100230B7241611060CEE7D6
:1022200000000000880600202C65000801E0000086
:1022300000BF4FF0FF307047FBE77047002070474A
:10224000002070477047F4E7F3E770477047704726
:102250004AB1000011F8013B521E00F8013B1CBFBF
:1022600011F8013BF8E7704710B5DFF86442182217
:102270000021204600F03BF94FF40072002104F1E8
:10228000180000F034F9DFF84C120FF249100A6818
:10229000BDE810401047F0B585B000F053F838BFE6
:1022A0006FF0040048D3E8680840884218BF6FF018
:1022B000050041D16B68002B18BF002A01D000F047
:1022C0003DF80AAE334622464FF4807105F506709C
:1022D00000F018FD074600F0E9F8BDF80200C71944
:1022E0006946B8B200F0B6F810F1010F20D0002016
:1022F00009E001A982B2401C8B5C3B76BDF800105E
:10230000491CADF80010BDF80010BDF802206F1890
:1023100081B29142EDD3334622464FF4807107F1EA
:10232000180000F0EFFC00F0C9F800F019F803E025
:1023300000F0C4F86FF0020005B0F0BD0DF102012D
:1023400001A818471C460023ADF80230604D2B7AD7
:10235000834270475E49486070475D490872704724
:1023600070B50026EFF3108472B6594DE88A58BB59
:1023700000F09CF8698A288A884223D0AA78012A2A
:1023800009D12B882E80181A022286B20EB900229B
:102390002A82AA70A8822A8AA87828B98A4234BFD9
:1023A000891AC2F50071A982A81800F1180684F3F1
:1023B0001088FFF7DEFD474AA98AD3683046984760
:1023C000064603E000F07AF884F31088304670BDCA
:1023D0000000000070B5EFF3108172B63C4A9078AF
:1023E000022802D10023937004E0138A908AC31854
:1023F000C3F308031382108A538A984223D0D48AE5
:10240000012C20D19478012C0AD115880026168041
:10241000281A022486B20EB9002414829470908285
:10242000148A907828B99C4234BF1B1BC4F50073F2
:1024300093821019183081F31088918A254AD36845
:10244000BDE87040184781F31088FFF794FDBDE8A0
:10245000704033E0F0B54FF0FF32EFF3108372B607
:102460001B4C258A668AAE4201D0B5420ED2C6F513
:102470000076B7B2B8420AD3A84213D2668A268041
:102480000125A5700025268A658200E0AE1BB6B244
:10249000B04207D2628A0A800022618A4018C0F3E3
:1024A0000800608283F310881046F0BDEFF31080BF
:1024B00072B60749CA8A521CCA8206E0EFF310803E
:1024C00072B60349CA8A531ECB8280F310887047C4
:1024D000500000203866000803E011F8013B00F8C6
:1024E000013B13465A1E9BB2002BF6D170471300D6
:1024F00003D00A46194600F009BE704780B510485F
:102500000821016000F0B4F818B1BDE8014000F006
:1025100071BE01BD80B50B48016841F00101016049
:102520000022006800F00100009000210098322095
:1025300000F07CFEBDE80240322000F095BE0000B5
:10254000540600206400005800F0BFBE00F0F2BE48
:1025500000F01CBF00F01CBF00F01CBF00F01CBF4F
:10256000D3BBD9B1B2F5803F5BD2022A1ED98C46CB
:10257000B1FBF2F102FB11C31B0443EA1043B3FBAE
:10258000F2FC02FB1C3380B240EA0343B3FBF2F0DF
:1025900002FB103240EA0C4000237047022A05D9A2
:1025A0008446B0FBF2F002FB10C270474AB105D17D
:1025B00000F0010249085FEA300070470022002362
:1025C000704700F0EFBE0B000200002100207047B2
:1025D000F7D3002200237047904271EB030CF2D333
:1025E00070B5B1FA81F4B3FA83F52C1BA340C4F1A2
:1025F000200532FA05F63343A2405FF00046E6407C
:1026000002E05B085FEA3202841A71EB030524BF23
:10261000204629467641F4D302000B003000002109
:1026200070BD70B5B1FA81F4B2FA82F5C4F120043C
:102630006419B4F12006DAD3B2405FF00044F440EC
:10264000002502E052085FEA3303C61A71EB020E5E
:1026500024BF3046714664416D41F3D302000B0044
:102660002000290070BD0000002200F09DBE000087
:102670007CB5040001D1012076BDA079002600259B
:1026800018B965712046FFF745FF0220DFF8BC242A
:10269000A0711168DFF8B80421F4004111601C2119
:1026A00003684B43DB0C642043430093009828B13C
:1026B00000F0D9F910684004F8D403E001200126A5
:1026C0000125A060DFF88C04016841F4004101603D
:1026D000DFF88404026842F4805202604FF4006222
:1026E000DFF87804016841F400610160026135B9E6
:1026F000206800F07EF9012020710021A1600120F6
:10270000A071304676BD2DE9F04100F0F5F825D1F5
:102710006079012822D0012161710222A27100F0AA
:10272000B5F800F0E3F80D2100F0B8F8390A00F030
:10273000B5F8F9B200F0B2F8002703E0295C00F028
:10274000ADF87F1CB8B24045F8D3306840F4004083
:10275000306000F033F800F087F800E00220BDE8B8
:10276000F0812DE9F04100F088F820D1607901284E
:102770001DD000F089F800F0EBF81D2100F08EF874
:10278000390A00F08BF8F9B200F088F8002100F067
:1027900085F8002703E000F064F8761C7F1CB8B2CF
:1027A0004045F8D300F006F800F05EF800E00220A3
:1027B000BDE8F081286840F4004028602046A4E18C
:1027C0002DE9F84304460F46A07901289046994622
:1027D00024D16079012821D000F056F8842F18BF49
:1027E000942F07BF012020710021217100F050F8C3
:1027F000002604E018F8001000F050F8761CB0B283
:102800004845F7D3286840F400402860842F1CBF57
:10281000204600F07AF900F027F800E00220BDE839
:10282000F2832DE9F04100F028F817D160790128F2
:1028300014D000F029F800F02BF8002100F02EF859
:10284000002703E000F00DF8761C7F1CB8B240456D
:10285000F8D3FFF7AFFF00F007F800E00220BDE873
:10286000F0813146204602E1A06800B1012001213B
:10287000A17100226271C0B2704704460F46A07970
:10288000012816469846704701216171204622E1D1
:10289000B04D286820F40040286039462046B8E052
:1028A0002DE9F04100F028F81DD1607901281AD0F7
:1028B000FFF7EAFF00F01AF80E21FFF7EFFFFFF72E
:1028C000ECFF002703E0295CFFF7E8FF7F1CB8B2AC
:1028D0004045F8D3306840F400403060FFF76EFFA9
:1028E000FFF7C2FF00E00220BDE8F081994E30689A
:1028F00020F400403060704704460F46A07901285C
:102900001546984670472DE9F041FFF7B6FF1CD1F8
:102910006079012819D0FFF7B7FF00F019F81E21E0
:10292000FFF7BCFFFFF7B9FF0021FFF7B7FF002754
:1029300003E0FFF796FF761C7F1CB8B24045F8D342
:10294000FFF738FFFFF790FF00E00220BDE8F081BD
:10295000804D286820F400402860704738B5044650
:1029600002220021684600F038FD02236A46122147
:102970002046FFF756FF9DF800009DF8015045EAFC
:102980000025E90744BF2046FFF711FAA80744BF16
:102990002046FFF710FA680744BF2046FFF727FAE2
:1029A000280744BF2046FFF726FAE80644BF204622
:1029B000FFF725FAA80644BF2046FFF714FA680679
:1029C00044BF2046FFF7FBF9280606D5E9054CBFB2
:1029D000012100212046FFF7F6F9A80544BF204653
:1029E000FFF7FCF902236A4602212046FFF7E8FEC2
:1029F00031BD5B490A6822F040020A6040F4417030
:102A000008604FF4B85048600A6842F040020A601B
:102A10007047F8B500F056F80B466043002100906F
:102A2000009838B100F01FF8D5F800E05FEA8E702A
:102A3000F6D503E001218C46C2F808C02B71386836
:102A40004643F60C14FB06F40094009828B100F0FD
:102A50000AF82B68D807F8D502E00123012193601A
:102A600068680846F2BD0098401E00907047F8B5AF
:102A700000F028F8604300230090009838B1FFF779
:102A8000F2FFD5F800E05FEA8E70F6D503E001238F
:102A90009C46C2F808C0FF2028713F687E43F60CB0
:102AA00014FB06F40094009828B1FFF7DCFF2C68B3
:102AB000E007F8D502E001240123946068680870FB
:102AC0001846F2BD224F274D024638681C26704337
:102AD0006424C00C704782B00179012914D11C4ACA
:102AE00013681C4A18214B431B0C0093116821F4F6
:102AF000004111600099491E009100990029F9D107
:102B0000136843F40043136002B018B510490C6811
:102B100018235C43240D64214C4300220094124B83
:102B20001C68009969B10099491E0091A4081968B0
:102B3000490801F0010104F001040C40012CEFD020
:102B400002E0022101228160104612BD940000586B
:102B500048000020900400589008005808040058CD
:102B6000000001580800015814040058204981B0A1
:102B70000A6802430A60096808400090009801B0A2
:102B8000704718B585B000F046FC00F046FC00F038
:102B90004AFC14220021684600F01FFC012001902D
:102BA00000210322029103920220FFF7DFFF02209F
:102BB000FFF7DCFF4FF48050009069460D4C204633
:102BC00000F040FC4FF4005000906946204600F0B1
:102BD00039FC00224FF48051204600F071FD0022A4
:102BE0004FF40051204600F06BFD06B010BD000010
:102BF0004C00005800040048114800210160416069
:102C0000704710B500F00FF81C6800F011F81C6058
:102C100006E010B500F007F85C6800F009F85C60A9
:102C200082F3108810BDEFF3108272B6044B704728
:102C300019B1012902D10443704784437047000051
:102C4000700600200EB41CB40FF29401039CD1E96D
:102C50000023CDE900230599BDF810200C19BDF81B
:102C6000181000948A1813B2B3F57A7FADF80420D7
:102C700006DB009B5B1CA2F57A720093ADF8042082
:102C8000FFE7DDE90023C0E9002313BC03B0704770
:102C900000000000F0B5044613A0104D2969D0E9EA
:102CA000002385B004A8CDE9032388470390E86892
:102CB0008047ADF80800686880470190DDE90301AE
:102CC000DDE9016700E000000091034631463A4625
:102CD0002046FFF7B7FF05B0F0BD000024660008EE
:102CE00000000000000000000000000000000000E4
:102CF00000F1010310F8011B11B110F8011BFBE7F3
:102D0000C01A70472DE9F84F94B00029D8BF0020B1
:102D100040F31681491E0290064600910DF10C0900
:102D2000154601930AE071460029A1F1010E04DD68
:102D30002021401E06F8011BF5D16D1C029A29784E
:102D4000B21A19B900988242C0F2F780009B02982B
:102D50009A4280F2F280252918BF06F8011BECD1B7
:102D600015F8011F0023302908BF012330390A2933
:102D70004FF0FF370BD2002705E015F8012B0A2191
:102D800001FB0727303F297830390A29F5D3297804
:102D900058294FF00A0A4BD063291CD0642918BF68
:102DA00069294AD0732921D075294DD0782941D07D
:102DB00025291CBF252106F8011B009A311A9142D2
:102DC00042DA2978002914BF06F8011B6D1E37E08E
:102DD000202006F8010B7F1E002FF9DC0198001D52
:102DE0000190001F006806F8010BA6E70199091D74
:102DF000019151F8048DB8F1000F08BF0FF250187F
:102E00004046FFF775FF0446BC42A7EB040A05DA0B
:102E100020225146304600F079F956440020A04265
:102E2000BEBF18F8011B06F8011B401CF7DB84E746
:102E300043F040034FF0100A06E043F0020303E0C2
:102E4000009A311A9142F2DB990705D5019A121DB9
:102E5000019252F8041D04E00199091D0191091F16
:102E60000968DFF8E480BE46009F301A381A4FF038
:102E7000FF325C0648BFDFF8D480AAF10207232F97
:102E800028BF0026D3D2DF074CBF302720274FF0C2
:102E9000000C9C0748BF002904D54FF02D0C494277
:102EA000AEF1010E002421B930228DF80C2001244E
:102EB0000DE0B1FBFAFB0AFB1B1118F8011009F831
:102EC0000410641C5FEA0B01F3D1002C00D42246ED
:102ED000D907AEEB020E0AD471460029A1F1010E0A
:102EE00005DD2021401E06F8011BF5D125E7BCF1C8
:102EF000000F03D0401E06F801CBF7D07146002921
:102F0000A1F1010E09DD401E06F8017BF6D114E7A0
:102F10003021401E06F8011BF9D011464A1E8C4292
:102F2000F6DB21464C1E00297FF7FDAE19F8041090
:102F300006F8011B401EF4D1FFE600203070104659
:102F400015B0BDE8F08F0000A4640008CC64000850
:102F50003C4E554C4C3E00008068704770B5674C45
:102F60002078C0B9664D4FF0FF362E6300F0C4FBE9
:102F700000F038F84FF48071284600F035FD2E63DC
:102F8000284600F0FBFD002000F0A4F800F0A7F8B0
:102F9000606001202070002070BD18B58BB0044621
:102FA0002C216846FFF760FB00F01CF8002007901A
:102FB0004FF0FF32514841685148141B00220592DE
:102FC000641A4FF000514FF4807206910A920194F6
:102FD0000122694600F04FFC08B100F00BF9002017
:102FE0000CB010BD10B5474B454C01221A604FF490
:102FF0008071204600F0F8FC4FF0FF322263002081
:1030000010BD80B500F06BF83C49486002BD3B48FC
:103010004068704780B500F062F8384A5168401A3D
:1030200002BD36490A780020012A08BF00F057B8CF
:10303000704703207047810D80024FF47A7200239D
:10304000FFF78EBA4FF47A71A1FB0001800A40EAC3
:103050008150704738B5810D80024FF47A72002399
:10306000FFF77EFA044600F03AF8054600E000BF9C
:1030700000F035F8401BA042F9D331BDFFF740B84E
:1030800080B500F02AF8BDE80240401C22E038B5C7
:10309000054600F024F8044600F01FF80146002021
:1030A0000019C4F309024FF47A746243920A800A49
:1030B0002A8040EA815032BD0246002101E00246EA
:1030C00001210F4800F09FBD002100E001210C48C4
:1030D00000F09EBD02460221F3E70221F7E710B59A
:1030E000094C2046FFF738FF00E0A068A16888423D
:1030F000FBD14FF0FF31081A10BD00007806002008
:10310000E80500205C280040002800404018491CC9
:103110001CBFB1F1010100F8012DF9D17047000089
:1031200010B500F065F900F081FDFEF731FF0446AF
:103130002E480168CA0504D4FEF72AFF001B0328A5
:10314000F6D32B48016841F480310160026822F413
:103150008032026000F070FD00F007F800F07FFDA3
:1031600000F0EDFD00F0F2FDFCE780B59AB04822DA
:10317000002108A800F031F91C22002101A800F06C
:103180002CF900F053FD1A48016821F01801016084
:1031900001211648026861F34A2202602422006875
:1031A00000F4C060009081230099089201211091E1
:1031B0000022B0210B9311921291139208A800F0F3
:1031C000D0FD08B172B6FEE74F21019100220292B4
:1031D0000392049205920792022101A801F00AF8D5
:1031E00008B172B6FEE71BB000BD00000004005835
:1031F0009000005872B6FEE70901020002D4274889
:1032000081547047264B02F00F021A4402F8041C46
:103210007047244B19684FF6FF020002114000F47A
:10322000E0600843204908431860704770B51D4BA3
:103230001C68C4F302230124C3F10705052D2EBF2A
:103240000F2504FA05F56D1E1E1D072E34BF002341
:10325000DB1E2940994004FA03F3BDE870405B1E71
:103260001A401143C8E70000010007D4012200F012
:103270001F010E4B8A40400943F82020704701008F
:103280000BD4012200F01F01094B8A40400943F88A
:103290002020BFF34F8FBFF36F8F704700E400E033
:1032A00018ED00E00CED00E00000FA0500E100E0A0
:1032B00080E100E0334981B00A6802430A6009688E
:1032C00008400090009801B0704718B585B01422EE
:1032D0000021684600F081F80420FFF7EBFF102181
:1032E000009101220192002102910322039269467A
:1032F000254C204600F0A6F8202000F010F8082009
:1033000000F00DF80022202100F010F8002210211A
:1033100000F00CF800F008F8002006B010BD009096
:103320006946204600F08EB800220821204600F0B1
:10333000C7B9000010B50328134C20D8DFE800F00F
:1033400002060F14FFF7F0FF002203E00122FFF74F
:10335000ECFF01221021FFF7E9FF00220CE001221F
:10336000FFF7E3FF012203E00122FFF7DEFF002267
:103370001021FFF7DBFF01222021FFF7D7FF0020FC
:1033800010BD00004C0000580008004800207047A5
:10339000012070470120704708B90F2070471620A0
:1033A000704700007047000000B500BF130096464C
:1033B0009446103928BFA0E80C50FAD85FEA417C47
:1033C00028BF0CC048BF40F8042BC90728BF20F80D
:1033D000022B48BF00F8012B00BD10B50446104673
:1033E0000A4601462046FFF791FE204610BD000028
:1033F000032010B5FFF70DFF01F03FF80F490860FB
:103400000F20FEF7C3FD0024002814BF012401F0A3
:10341000D1F8204610BD0A480BE00948016821F0A8
:103420000201016070470648016821F00401016053
:103430007047016849084900016070474800002052
:10344000042004E02DE9F04F0027A54AA54BDFF842
:10345000988205460E463BE0DFF890C2654514BFF2
:103460004FF0070C4FF0020C0CFA01F141EA040C8A
:1034700048F82EC0C143D3F800C0746801EA0C0CB0
:10348000E40248BF40EA0C0CC3F800C0D3F804C003
:10349000746801EA0C0CA40248BF40EA0C0CC3F8A3
:1034A00004C0D2F800C0746801EA0C0CE40348BF01
:1034B00040EA0C0CC2F800C0D2F804C001EA0C0CBF
:1034C0007168890348BF40EA0C0CC2F804C07F1C35
:1034D000316831FA07F07AD00124BC4014EA0100C7
:1034E000F5D04FEA470C032101FA0CF16FEA010E07
:1034F000716801F00309B9F1010F1CBF01F003016C
:10350000022912D1A968D6F80C900EEA010109FA35
:103510000CF949EA0101A960696821EA04047168AB
:10352000C1F30011B9400C436C60B900347904F068
:103530000304032C23D0EC68D6F808900EEA0404A8
:1035400009FA0CF949EA0404EC60347904F0030444
:10355000022C14D1FC0805EB840401F01C09D4F8FA
:1035600020A04FF00F0B0BFA09FB2AEA0B0AD6F842
:1035700010B00BFA09F949EA0A09C4F820902C683E
:103580000EEA040E347904F0030404FA0CF444EA5D
:103590000E0CC5F800C0746814F4403F97D04FEA91
:1035A000970E58F82EC001F00C0107248C402CEA2D
:1035B0000404B5F1904F08BF4FF0000C06D0DFF8BF
:1035C00030C165457FF448AF4FF0010C4CE7BDE8D2
:1035D000F08F2DE9F04F8A4600264249404A424B7F
:1035E00081464CE0414FB94514BF0727022707FA2F
:1035F0000EF7BD4218D1D2F800E0C04300EA0E0E2B
:10360000C2F800E0556805405560D1F800E000EAD6
:103610000E0EC1F800E04D682840486053F82800BD
:1036200020EA040443F8284003247000D9F80080FD
:1036300004FA00F040EA0808F408C9F8008009EB31
:10364000840E0F24DEF820800BF01C05AC4028EA25
:10365000040BCEF820B0C043D9F808B000EA0B0B39
:10366000C9F808B0D9F804E02EEA0C0CC9F804C077
:10367000D9F80CB000EA0B00C9F80C00761C3AFA35
:1036800006F01BD0012000FA06FC1CEA0A00F5D067
:103690004FEA96084FEA860B53F828500BF00C0EB1
:1036A000072404FA0EF42540B9F1904F08BF002713
:1036B0009DD00F4FB94595D1012798E7BDE8F08F10
:1036C0000AB181617047816270470A4A13680146F6
:1036D0000B421CBF116000F06EBF7047000000007D
:1036E0008008005800080058080001400008004801
:1036F000000400480C08005830B58BB02C22002183
:103700006846FFF76AFE334C334820601F214FF0B4
:1037100080400022E061A16022616261A2612262B8
:103720004FF480756562204600F05AF808B1FFF743
:1037300061FD204600F037FA08B1FFF75BFD00207D
:103740004FF00051079001900022069105920A95D2
:103750006946204600F08FF808B1FFF74BFD0BB02B
:1037600030BD18B58FB004463822002101A8FFF7FC
:1037700034FE2168184A914229D14FF480334FF426
:10378000807101930E9101A800F034FF08B1FFF79A
:1037900031FD1248816B41F40041816300210268D0
:1037A00042F4806202600022006800F480600090B1
:1037B00000980220FFF73AFD0220FFF755FD002296
:1037C00000212A20FFF732FD2A20FFF74DFD10B01F
:1037D00010BD0000E80500200028004058000058F7
:1037E00070B504460120002C44D004F12C05697802
:1037F00021B9002028702046FFF7B3FF0221DFF82F
:1038000040636970CA20B0615321B161204600F065
:103810004FF9010028D1F168DFF828030140F16079
:10382000F268606821690243A0690A430243F260BA
:10383000E168A06841EA004171603268616AA06A8B
:1038400022F4F8520A4302433260204600F051F954
:10385000010009D1F368226AE16923F06043134350
:1038600062690B431343F360FF21B161020004BF9F
:103870000121697070BD2DE9F04700F042F808BFE2
:1038800002203CD000F089F821D09AB9F0684106B6
:1038900058BFE770207800F05DF98146607800F04D
:1038A00059F90702A07800F055F900F04EF800F041
:1038B0002EF80CE06169B1F1803F18BFB1F5000F3F
:1038C00003D0F068420658BFE77000F02CF800F013
:1038D0005AF804D100F03FF840F4885003E000F0BB
:1038E0006BF840F40850F0609848016841F40031EA
:1038F0000160FF20B0610121697000202870BDE8DF
:10390000F08700F12C050027287801287047E1781E
:1039100049EA070747EA8157216A47EA0067606971
:103920000F430743704767782278A07898F80030F3
:103930003F0247EA0247E278074347EA8257206A94
:1039400047EA036707430F43704747EA0947814641
:1039500098F80000FEE020F48850F0600121BAF5EC
:10396000807F316504D1A169E0690143B16302E060
:103970007763A069B06360687066696841F00101AF
:103980006960F0687047CA21B1615320B061D8F80E
:103990000410F068B1F5807F70470C460120287054
:1039A0000221674E697004F12408D6F800A00AF4D9
:1039B000407ABAF5807F704720F40850F060022109
:1039C000BAF5807F316504D1A169E06901433164B2
:1039D00002E0F763A06930646068B066696841F02E
:1039E00002016960F068704710B510F82C2F012AA9
:1039F00001D1022010BD012202700223524A4370FD
:103A0000CA24D4605323D360B1F5807F11680BD1F1
:103A100021F488511160D36A23F00043D36201235B
:103A20004168490849000AE021F408511160536BCC
:103A300023F0004353630223416821F002014160F7
:103A40005364FF21D16001224270002101700020E7
:103A500010BD70B53E4D2E680446206B0640F10740
:103A600004D50122AA602046FFF708FBB00704D561
:103A70000221A960204600F077FE012084F82D0085
:103A800070BD38B52E4C206820F020002060FEF775
:103A90007FFA05462068810608D4FEF779FA401BB4
:103AA00040F2E9318842F5D3032032BD002032BD17
:103AB000F8B5234C054620680026410617D4206837
:103AC00040F080002060FEF763FA07460AE0FEF748
:103AD0005FFAC01B40F2E931884203D3032003267A
:103AE00085F82D002168480601D4032EEFD1304619
:103AF000F2BD70B5124D0446286820F080002860A1
:103B00000026E968880608D42046FFF7BAFFA0B16E
:103B1000032084F82D0003260FE0E86820F0200041
:103B2000E8602046FFF7ADFF18B1032084F82D00B0
:103B30000326E86840F02000E860304670BD0000D1
:103B40000C280040BFFF8FFB182800408008005859
:103B500054280040002101E0491C0A38C2B20A2A58
:103B6000FAD240EA0110C0B2704700000B60CA6090
:103B700001214170002202700020704710F82C1FB4
:103B8000012901D102207047012101700222DFF8D2
:103B90008C104270CA23CB605322CA60FF220B688C
:103BA00043F02003E2E710B510F82C1F012901D1E2
:103BB000022010BD01210170022218494270CA235F
:103BC000CB605322CA600B68154A43F080030B6038
:103BD000146844F480241460FF22CA6001214170FB
:103BE00000220270002010BD10B504460D48016887
:103BF0004A0604D5402181602046FFF741FA0121A1
:103C000084F82D1010BD084800EB81000260704759
:103C1000054800EB8100006870470000182800404C
:103C2000800800585428004000B100400548016851
:103C300041F48071016070470248016821F480718D
:103C40000160704700040058344981B00A6802439B
:103C50000A60096808400090009801B0704730B5CC
:103C600085B0142200216846FFF7B7FB0220FFF75A
:103C7000EBFF0420FFF7E8FF0120FFF7E5FF284DE9
:103C800000224FF47A412846FFF71AFD4FF40A410B
:103C900000F04AF8022200F04DF84FF48041009104
:103CA0000122002102910391019200F044F80320C7
:103CB0000121009002914FF40414019469464FF0E1
:103CC0009040FFF7BFFB4FF4405100F02DF8032266
:103CD00000F030F8402100910194012102916946E1
:103CE0001048FFF7AFFB002200210620FFF79EFAE5
:103CF0000620FFF7B9FA002200210720FFF796FA05
:103D00000720FFF7B1FA002200211620FFF78EFAF4
:103D10001620FFF7A9FA05B030BD00004C0000588E
:103D2000000400480008004800910122019200218F
:103D300002917047039269462846FFF783BB80B51E
:103D4000FEF7DEF8BDE8014000F010BD4FF0FF3097
:103D500000F0DABDDFF800080068000100F0F000B4
:103D600070472DE9F843040069D04FF0B046DFF802
:103D7000F477D6F80880F5682078810608F00C08FA
:103D800005F003054BD5B8F1000F04D0B8F10C0FC6
:103D900008BF012D2CD13068810702D5206A002888
:103DA0004DD0316808074EBF316879680909A06AAB
:103DB00001F0F001814206D200F084FB002808D116
:103DC00000F000FA07E000F0FDF9A06A00F07AFBCD
:103DD000002840F0F28100F050FBDFF88017086007
:103DE000DFF87C070068FEF7D1F8010017D0E7E1A3
:103DF000206A002864D0316841F001013160FEF78B
:103E0000C7F881463068800707D4FEF7C1F8A0EBF9
:103E100009000328F6D30320D2E100F0D3F920787B
:103E2000C1070ED5B8F1080F04D0B8F10C0F08BFC8
:103E3000032D57D13068810303D56068002800F056
:103E4000BC812178880715D5B8F1040F05D0B8F1E9
:103E50000C0F08BF022D40F084803068410502D568
:103E600020690028EBD07068616920F0FE4040EACC
:103E7000016070602078010740F1BE80A0690028D1
:103E8000786800F0A980E16900F01002914200F02A
:103E9000938000F00303022BD1D0C00709D57968C5
:103EA000490849007960FEF773F8054678684008CC
:103EB000C0077BD5FEF76CF8401B1228F6D3AAE7A3
:103EC0003068400840003060FEF762F88146306894
:103ED0004008C007A3D5FEF75BF8A0EB0900032854
:103EE000F5D398E73168A06821F48011014331606F
:103EF0006068B0F5803F04D1306840F480303060B5
:103F000011E0B0F5041F306806D140F400103060B5
:103F1000316841F4803105E020F480303060316850
:103F200021F400113160606860B1FEF731F881461C
:103F30003068800385D4FEF72BF8A0EB09006528D4
:103F4000F6D368E7FEF724F881463068400CC007D6
:103F50007FF577AFFEF71CF8A0EB09006528F4D3D6
:103F600059E7206980B1316841F480713160FEF712
:103F70000FF80546306840053FF575AFFEF708F8C5
:103F8000401B0328F6D346E7306820F48070306089
:103F9000FDF7FEFF05463068800AC0077FF56AAF6F
:103FA000FDF7F6FF401B0328F5D334E77968E06995
:103FB00021F0100101437960786840F001007860D9
:103FC000FDF7E6FF05467868800715D4FDF7E0FFAA
:103FD000401B1228F7D31EE7400840007860FDF729
:103FE000D7FF054678684008C00705D5FDF7D0FF24
:103FF000401B1228F6D30EE72078410770D5DFF872
:1040000068552868C0050ED4FFF710FEFDF7C0FF05
:1040100081462868C00506D4FDF7BAFFA0EB090069
:104020000328F6D3F7E6E068002841F2893939D051
:10403000852818BF052803D1386840F0040038608F
:10404000FDF7A6FF0546386840F001003860386883
:10405000800705D4FDF79CFF401B4845F7D3DAE6FF
:10406000E068812818BF85280FD1FDF791FF05462C
:10407000386840F0800038603968080530D4FDF7B2
:1040800087FF401B4845F7D3C5E6FDF781FF00F0E9
:10409000ABF83968080523D5FDF77AFF401B484582
:1040A000F7D3B8E6FDF774FF00F09EF8396808050D
:1040B00005D5FDF76DFF401B4845F7D3ABE6FDF78F
:1040C00067FF054638684008400038603868400897
:1040D000C00705D5FDF75CFF401B4845F6D39AE6BF
:1040E000E06A00286BD0B8F10C0F4ED0022830687F
:1040F00020F08070306032D1FDF74AFF054630680D
:10410000400EC00705D5FDF743FF401B0B28F6D333
:1041100081E6F068DFF85414226B0840616B1043AD
:10412000A26B0843E16B40EA0220226C0843616CF9
:1041300010430843F060306840F080703060F168F0
:1041400041F08051F160FDF723FF044630688001A3
:1041500035D4FDF71DFF001B0B28F7D35BE6F16894
:10416000DFF80C0489088900F160F1680140F16012
:10417000FDF70EFF04463068400EC0071FD5FDF75F
:1041800007FF001B0B28F6D345E6012815D0F06881
:10419000226B00F00301914202BF00F07001626BDC
:1041A00091420AD1A26B00F4FE41B1EB022F02BF93
:1041B00000F06040616C884201D0012000E00020E6
:1041C000BDE8F283306840F0080030603168A06AD2
:1041D00021F0F001014331607168606A21F47F4190
:1041E00041EA0021716070470546386820F0800080
:1041F000386070472DE9F8430400884600F0B0802D
:10420000DFF8705300F0CDF80CD200F0CFF806467E
:1042100000F0C7F806D0FDF7BBFE801B0228F7D9D7
:104220000320BCE0207881074FF0B04611D5B2687A
:10423000A06822F0F0020243B260FDF7A9FE074633
:10424000B068C00305D4FDF7A3FEC01B0228F7D950
:10425000E6E72078DFF80073810612D53A686069D6
:1042600022F0F00202433A60FDF792FE8146386880
:10427000800306D4FDF78CFEA0EB09000228F6D9D6
:10428000CEE72078410613D53868A16900090001FE
:1042900040EA11103860FDF77BFE81463868C003A4
:1042A00006D4FDF775FEA0EB09000228F6D9B7E7A2
:1042B0002078410711D5B268E06822F4E062024339
:1042C000B260FDF765FE0746B068800305D4FDF7D0
:1042D0005FFEC01B0228F7D9A2E72078010712D59C
:1042E000B068216920F4605040EAC100B060FDF779
:1042F0004FFE0746B068400305D4FDF749FEC01BDA
:104300000228F7D98CE72078C1072BD560680228EE
:1043100019D13168890323D5B268920840EA820036
:10432000B060FDF735FE0746B068616800F00C002C
:10433000B0EB810F16D0FDF72BFEC01B41F2893187
:104340008842F1D36CE7032802D13168890103E088
:104350000028316802D18907DED401E04905DBD4A9
:1043600001201CE0286800F0070080450BD200F017
:104370001DF8044600F015F805D0FDF709FE001BF6
:104380000228F7D94CE700F078F8DFF8D011086080
:10439000BDE8F243DFF8C8010068FDF7F7BDBDE8EE
:1043A000F283286800F00700404570472968C90873
:1043B00048EAC1012960FDF7EBBDF0B54FF0B0420E
:1043C00000219068D668DFF8B431DFF8B4410025E9
:1043D00010F00C0006F0030603D00C2820D1012EAB
:1043E00028D11768674D684E3F07176809D43F0703
:1043F00047BF166806F0F006366806F47066360A9F
:1044000009E03F0747BF166806F0F006366806F475
:104410007066C6F3031655F8265058B9294609E0C8
:10442000042804D0082805D11068C00201D521460F
:1044300000E01946906800F00C000C281BD1D068F1
:1044400000F00300022804D0032805D11068C00240
:1044500001D5254600E01D46D068D168D268C0F37A
:1044600006204543C1F30210401C520FB5FBF0F08B
:10447000521CB0FBF2F10846F0BD80B5FFF79DFF7E
:104480003D49FFE7414A0968C1F3031152F8211081
:10449000B0FBF1F002BD80B5FFF7EFFF00F00EF8C2
:1044A000C1F3022106E080B5FFF7E7FF00F006F850
:1044B000C1F3C22152F82110C84002BD2E49344A2E
:1044C0000968704770B50446FFF744FC054600F0E4
:1044D000CDFA2C49C4F3031251F822102B4AC5F32C
:1044E000031352F823202B4B5FF00004B1FBF2F1D1
:1044F000B0F5007FB1FBF3F12BA2204620D100BF25
:1045000025A333F810508D4217D2401C0328F8D34E
:10451000184D2868C00844EAC0002860FDF738FD3F
:104520000646286800F00700A04212D0FDF730FDD3
:10453000801B0328F5D3032070BD52F82040E7E725
:1045400017A333F810508D42F7D2401C0328F8D33C
:10455000DEE7002070BD0000080100584800002080
:104560003400002090000058000400588C80C111D5
:10457000FFFFFEEE00400058080000580048E80128
:104580000024F4001064000894000058D063000870
:10459000A065000840420F00120024003000000017
:1045A00006000C00100000000000000001000000E8
:1045B0000200000070477047DFF89C110A6822EA89
:1045C000104280B209E0DFF890110A68030903F491
:1045D0007F2300019A4300F47F2010430860704756
:1045E000DFF874211368010C23EA014343EA004316
:1045F00013607047F8B5044600252068C1033CD518
:10460000FFF714FBFDF7C4FC0646DFF85401016810
:10461000CA0505D4FDF7BCFC801B0328F5D324E0B4
:10462000DFF840613068616B00F4407088421ED052
:104630003068316841F48031316020F44070326874
:1046400022F480323260306000F0020002280ED185
:10465000FDF79EFC07463068800708D4FDF798FCFC
:10466000C01B41F289318842F5D3032505E031684A
:10467000606B21F44071014331602178C80744BF69
:104680006068FFF799FF2078810744BFA068FFF7B3
:1046900093FF2078DFF8C460810605D5F26F2069AA
:1046A00022F440620243F2672168880544BF206A11
:1046B000FFF796FF2068410544BF606AFFF790FF4F
:1046C0002068010544BFA06AFFF78AFF20784106F1
:1046D00044BF6069FFF777FF2078010644BFA069F7
:1046E000FFF771FF2068C10544BFE069FFF76BFF6A
:1046F0002078C1060DD5F26FE06822F440720243C3
:10470000F267E168B1F5807F03D1306840F08070D6
:104710003060216808040BD5F26F216B22F0404213
:104720000A43F267206B18B9316841F0807131603B
:10473000206841040DD5F26FE06A22F04052024336
:10474000F267E16AB1F1005F03D1306840F4803074
:1047500030602846F2BD0000880000580C00005868
:1047600000040058900000587047000045480FF2C0
:104770009D010FF2B90238B5016082608AB00FF274
:104780001D110FF215130FF219123F4CC160436057
:1047900002612168884700BF42A300F041F8012070
:1047A00009900590052308200021029301900891AB
:1047B000079106910491039100910123A5690722B5
:1047C0000120A847626D0A2101209047E1682F4827
:1047D00088470FF215020021042000F005F90BB004
:1047E000BDE8304048E0000080B525A3002200214C
:1047F0000120FDF750FD00BF30A300F011F8224961
:104800004A6BBDE8024000201047000080B500BFA1
:104810002DA300F005F8BDE802401D48FDF7EFBBF1
:10482000012200210120FDF736BD0000FEB504463F
:104830000D4616461F4600BF26A3FFF7F1FF01975E
:104840000096012226A300210120FDF724FD0E4839
:10485000104EC16A884735802A462146301DFDF733
:10486000F7FC301D0090002225A300210120FDF758
:1048700012FD03B0BDE8F0400021042000F0C2B8F2
:104880000A0D0000200600204C63000820448836F2
:104890003C060020380000207047000070470000F0
:1048A000704700002A2A2A2A2A2A52454345495697
:1048B00045522A2A2A2A2A2A0A0D000052616469CE
:1048C0006F2052780A0D00004F6E5478446F6E6569
:1048D0000A0D00004F6E5278446F6E650A0D00009D
:1048E0005273736956616C75653D25642064426D31
:1048F0002C20536E7256616C75653D25640A0D005F
:104900002573200A0D0000002DE9F041454C256972
:10491000284020614FF0FF36A1686269E068A36912
:1049200001273DE0491C54F831301A42FAD054F8BE
:10493000312004EBC1081040D8F804100CEA000044
:10494000014208BFC8F80460D8F80410084000F01D
:104950006BF8D8F8042007FA00F18A43C8F804205D
:10496000E061EFF3108172B607FA00F2A068D2435B
:104970001040A060012004EBC003401E53F808CC97
:1049800002EA0C0C43F808CCF5D181F31088E069F9
:1049900004EB80010A6A9047A1686269E068A36934
:1049A000D4F810C0014011EA0C0F05D01A4203D10F
:1049B000002100EA0C02B6E7E66100F05FF8EFF3D1
:1049C000108672B6A2686169E068236902401A42E3
:1049D00002BFA0690142FDF7B5FA86F3108800F026
:1049E0004EF82561BDE8F08138B51446EFF3108527
:1049F00072B600F019F80B4901EB8000046285F3F0
:104A0000108831BD30B5EFF3108272B6054B9C684B
:104A100004439C6053F83150284343F8310082F33B
:104A2000108830BD0000002002460020110C09044F
:104A300004BF1020120412F07F4F04BF083012028E
:104A400012F0704F04BF001D120100BF03A3120F2C
:104A5000C0F11F00995C401AC0B270470403020203
:104A6000010101010000000000000000DFF8080063
:104A7000006800F4C0607047000400587047704739
:104A800038B5040009D004F18005696809B900F05F
:104A90001EF800F021F8012801D1012032BDA06AE2
:104AA00008B100F02AF800F00AF821F02A01FFE727
:104AB000816000F01BF8BDE8324000F0D0BB2068F8
:104AC000416821F49041416020688168704700206E
:104AD0002870204600F08DBF24216960206802689C
:104AE000520852000260204600F020BA2068016897
:104AF00041F00101016020467047204600F04CBBA8
:104B000038B500F056F80DD109B1140001D10120DB
:104B100032BD0478012C05D000F051F8BDE83840D2
:104B200000F028BC022032BD70B5044604F18005B7
:104B30001346686820283AD151B3180028D0287845
:104B4000012834D001222A7004F1540621653380F3
:104B500073800020E86021216960706AD0B1DFF8BD
:104B6000B013C162DFF8AC03716A0863716ADFF8E1
:104B7000A80348630020716A88632068216D00F1F2
:104B80002802706A01F06AF820B100F07FFC6A60C8
:104B9000012070BD21684020086200222A7000F0C8
:104BA00026F841F0800100F02DF8F8D170BD022008
:104BB00070BD034603F180008468202C70470125F6
:104BC00005700020D866DFF854431868A0420CD066
:104BD0004068040209D5186850E8004F054644F0C3
:104BE000806445E800400028F5D1184670472068E9
:104BF00000F1080151E8001F00F108037047DFF8D9
:104C00007C05014043E80010002870472DE9F04181
:104C1000054640F60F0C2A68D369104613EA0C0FBC
:104C20000768966805F15C0407F0200003F0200196
:104C30000DD1002914D010B9F00040F18D806169C8
:104C4000002900F038812846BDE8F0410847DFF828
:104C5000E4C816EA0C0F04BFDFF8DCE817EA0E0F11
:104C60007AD05FEAC37E48BF5FEAC75807D54FF0E6
:104C7000010EC2F820E0226B42F0010222639A0783
:104C80000AD5F20708D5D5F800800222C8F82020FE
:104C9000226B42F0040222635A070AD5F20708D5B4
:104CA000D5F800800422C8F82020226B42F00202CE
:104CB00022631A070DD5002808BF16EA0C0F08D08A
:104CC000D5F800C00822CCF82020226B42F0080260
:104CD00022631A0509D57B0107D52F684FF40062BE
:104CE0003A62226B42F020022263226B002A32D009
:104CF00031B108B9F00003D5616909B12846884788
:104D0000206B29688A68510602D410F0280F1DD044
:104D1000284600F0E3FB28688168480611D500F0BA
:104D2000D6F8FCD1206A60B10FF6BD018163206A1C
:104D300001F00EF800280ED0206A816BBDE8F0412A
:104D400008472846BDE8F04101F024B9284601F0A3
:104D500021F900202063AEE0206901286DD1D8063A
:104D60006BD5F90669D5102010622968886841065C
:104D70002ED5216A0868406880B20028EBD02288CE
:104D80009042E8DA6080086801688A061AD400F068
:104D9000ACF821F4807100F096F8F8D100F0DDFA5B
:104DA000FCD100F0A7F8FCD12020E06200212161B5
:104DB00000F09BF821F0100100F085F8F8D1206A8E
:104DC00000F092FF21886088091A89B2284630E0F5
:104DD000228861886088511A00281CBF88B2002888
:104DE00069D02A46106850E8003F054623F49073C6
:104DF00000F063F8F6D1106800F1080300F108062E
:104E000053E8003FDFF87003034046E80030002815
:104E1000F1D12020E062002323616361136853E82D
:104E2000003F146823F0100300F07CF8F6D189B23B
:104E30001046BDE8F04101F0AEB8D80209D57102C4
:104E400007D54FF4801010622846BDE8F04101F00C
:104E5000A3B8180609D5390601D4300205D5A169D1
:104E600049B32846BDE8F0410847580611D57906F0
:104E70000FD500F03AF821F0400100F024F8F8D105
:104E80002020A0620021A1612846BDE8F04101F088
:104E9000CCB8180206D5790004D52846BDE8F04103
:104EA00001F0F2B8D80148BF002F04D52846BDE86C
:104EB000F04101F0EAB8BDE8F08145E80030002893
:104EC000704721F4F07142E800100028704729680B
:104ED00001F1080252E8001F286800F1080321F0E0
:104EE000400143E8001000287047286850E8001F80
:104EF00002467047286800F1080151E8001F00F1E0
:104F0000080321F0400143E800100028704700002A
:104F1000515500089155000899550008008000403F
:104F200023F4807344E8003000287047F8B5044645
:104F3000DFF8900822681368A168034020690B43DA
:104F400061690343E0690B43034313600025516823
:104F5000E06821F4405101435160A369DFF868180B
:104F60008A421CBF206A03439668DFF80409DFF811
:104F700004C9DFF8047906403343936080A6D36AFE
:104F8000606A1B0940EA0313D3626245DFF8EC084C
:104F90004FF4004346D13F6807F0030747F440371A
:104FA0004FF4403CB7EB0C0705D07F1E49D07F1E65
:104FB00049D07F1E7BE04FF0010CE169B1F5004F55
:104FC0004FF6F07740F09F80BCF1000F0FD0BCF19E
:104FD000010F00F09080BCF1020F0CD0BCF1040F67
:104FE00000F08C80BCF1080F00F08B80B8E0FFF778
:104FF00052FA002815D0626A616836F81230B0FBA8
:10500000F3F04A0802EB4002B2FBF1F080B2A0F1EB
:105010001001B942EAD20740C0F3420007432068BA
:10502000C7609EE0DFF858C8624532D13F6807F09C
:105030000C0747F440274FF4402CB7EB0C0738D04F
:105040003F1F3BD03F1F36D03F1F3AD04FF0100CD0
:105050008A42B2D1BCF1000F09D0BCF1020F0AD0D4
:10506000BCF1040F30D0BCF1080F30D078E0FFF76E
:1050700012FA002875D0616A36F81120B0FBF2F6FA
:10508000626802EB42018E426AD31303B34220D21C
:1050900066E08A42DAD13F6817F4406709D0B7F575
:1050A000806F0BD0B7F5006F05D0B7F5406F08D013
:1050B000CCE7AC46CCE74FF0020CC9E74FF0040C4C
:1050C000C6E74FF0080CC3E7FFF777F9D1E71846BA
:1050D000D1E75008002110EB062051EB16610023A8
:1050E000FDF73EFAA0F54076DFF88878BE4237D269
:1050F0002168C86035E0FFF7D6F97AE7FFF75DF978
:1051000077E7184677E7BCF1000F0CD0BCF1010F30
:105110001ED0BCF1020F09D0BCF1040F1BD0BCF1B2
:10512000080F1BD01CE0FFF7B6F9D0B1626A36F861
:1051300012306168B0FBF3F000EB5100B0FBF1F00E
:1051400080B2A0F11001B9420AD22268D06008E012
:10515000FFF7A9F9E9E7FFF730F9E6E71846E5E7D1
:10516000012504F168000121002341800180836052
:10517000C3602846F2BD0000FEFFFFEFFEFF7FEF99
:10518000010002000400060008000A000C001000E4
:10519000200040008000000190F82810CA0706D5C2
:1051A00002685368C16A23F400330B43536090F8DC
:1051B00028108A0706D502685368016B23F48033F0
:1051C0000B43536090F828104A0706D502685368CD
:1051D000416B23F480230B43536090F828100A0797
:1051E00006D502685368816B23F400430B43536078
:1051F00090F82810CA0606D502689368C16B23F49C
:1052000080530B43936090F828108A0606D50268F5
:105210009368016C23F400530B43936090F82810BB
:105220004A0610D502685368416C23F480130B437F
:105230005360436CB3F5801F05D15368816C23F430
:10524000C0030B43536090F828100A0606D5016886
:105250004A68C06C22F4002202434A607047F8B5E5
:10526000044604F180050020E8606FF07E47FCF7FB
:105270008FFE0646206801680A0708D50097334666
:1052800000224FF40011204600F018F860B92068A1
:1052900001684A070AD50097334600224FF480017F
:1052A000204600F00BF808B10320F2BD2020686012
:1052B0002021A9600020E0662870F2BD2DE9F041B0
:1052C000069C05460E4690461F462868C169314037
:1052D000B1420CBF01200020404529D114F1010F3B
:1052E000F3D0FCF755FEC01B844200D34CB900F04C
:1052F00029F800F032F8FCD100F01DF8002101700F
:1053000014E0286801684A07DFD5C1690805DCD5C3
:105310002A684FF40061116200F014F800F01DF8E3
:10532000FCD100F008F8C16000220270032000E008
:105330000020BDE8F08105F180002021416020229D
:1053400082607047286850E8001F024621F4D0713F
:1053500042E800100028F5D17047286800F10801E4
:1053600051E8001F490800F10803490043E8001014
:1053700000287047B0B5034600209965FF2403F16B
:105380005C010A804A8048619868B0F5805F04D16A
:10539000186990B940F2FF140FE018B9186960B1AC
:1053A0007F2007E0B0F1805F06D1186908B97F243B
:1053B00003E03F20888001E000248C8003F180041A
:1053C0000020E0602225A560186800F1080555E876
:1053D000005F00F1080745F0010547E8005000288C
:1053E000F2D18868B0F1005F2BD18889824228D33E
:1053F0009A68B2F5805F04BF1869002807BF0FF2F2
:10540000D9324A610FF225304861002121701869B4
:1054100040B1196851E8001F1A6841F48071FFF724
:1054200052FDF6D1186800F1080151E8001F00F1A3
:10543000080441F0805144E800100028F2D1002017
:10544000B0BD9868B0F5805F04BF1869002807BF39
:105450000FF20D224A610FF2B9104861002121704C
:10546000186948B1196851E8001F1A6841F4907131
:10547000FFF729FDF6D1E2E7186850E8001F024661
:1054800041F02001FFF71FFDF6D1D8E71020E860BA
:10549000002129702022704710B500F008F8FCD1D7
:1054A00000F00FF8FCD12021C0F8841010BD016875
:1054B00051E8002F0B4622F0C00243E800210029EA
:1054C0007047016801F1080252E8002F01F1080459
:1054D00022F4000244E800210029704710B500F0D2
:1054E00011F8FCD100F018F8FCD1C16E012902D1ED
:1054F00000F024F8FCD12021C0F888100022C266F8
:10550000026710BD016851E8002F0B4622F490722B
:1055100043E8002100297047016801F1080201F108
:10552000080452E8002FDFF850140A4044E8002134
:10553000002970470100001020010004026852E8B1
:10554000002F036822F0100243E800210029704771
:1055500010B50146886A09680A68930614D40021C8
:10556000A0F85610026802F1080151E8002F036804
:1055700003F1080422F0800244E800210029F1D15F
:1055800000F03BF8FCD110BDBDE8104000F04DBD6F
:10559000806A00F07BBD0000F8B5846A04F18405E0
:1055A00004F1560728686E6821688A68110606D5D6
:1055B000212804D1002038802046FFF76DFF2168A4
:1055C0008868410606D5222E04D100203881204665
:1055D000FFF784FFA86840F01000A8602046BDE8EF
:1055E000F24000F0D7BC0000806A00F156010022B2
:1055F0000A8100230B8000F0CDBC016851E8002F28
:105600000B4642F0400243E80021002970470000A9
:1056100038B500F04CF81DD14B6A9188846D0B4071
:105620002370816D4B1C00F048F817D100F053F83F
:1056300000F066F8FCD100F047F80AD1136100F0E1
:1056400055F8FCD10168CB69DC0644BF10230B621E
:1056500063E067E0886940F00800886131BD0000C0
:1056600038B500F024F81DD14B6A9188846D0B4049
:105670002380816D8B1C00F020F817D100F02BF8EF
:1056800000F03EF8FCD100F01FF80AD1136100F0E1
:105690002DF8FCD10168CB69DC0644BF10230B62F6
:1056A0003BE03FE0886940F00800886131BD00F1CF
:1056B0005C020168D36A222B7047836551884B1EB8
:1056C00053805188002970472021D1620023536103
:1056D000116901297047036853E8003F046823F407
:1056E000907344E800310029F5D17047016851E812
:1056F000003F0C4623F0100344E8003100297047B6
:10570000016801F1080353E8003F5B0801F1080557
:105710005B0045E80031002970471188BDE834403E
:1057200000F039BCBDE8324000F088BC2DE9F843F8
:1057300000F0AEF841D1A08978B9608800283ED049
:10574000A18988423BDA00F0BEF88C48606100F025
:10575000D9F834E0304600F071FCA806EDD500F031
:1057600091F80870B06D421C00F0C3F814D0E9073E
:1057700048BF5FEAC95201D500F004F9A80703D574
:10578000F90701D500F0ADF800F090F820B13046EF
:1057900000F000FC0020206360880028DDD100F0CC
:1057A000CAF8D7D1216100F0B8F844BF10210162D6
:1057B0002188304600F0EFFBCFE700F007F8BDE8A6
:1057C000F1830000F369FFCF00800040816941F060
:1057D00008018161704700002DE9F84300F058F896
:1057E00041D1A08978B9608800283ED0A18988423B
:1057F0003BDA00F068F86248606100F083F834E05A
:10580000304600F01BFCA806EDD500F03BF8088000
:10581000B06D821C00F06DF814D0E90748BF5FEA54
:10582000C95201D500F0AEF8A80703D5F90701D594
:1058300000F057F800F03AF820B1304600F0AAFB2B
:105840000020206360880028DDD100F074F8D7D1F3
:10585000216100F062F844BF1021016221883046C6
:1058600000F099FBCFE7FFF7B1FFBDE8F18300003F
:10587000FFF4FF1100380140880000580024F400B4
:10588000004400403168486AB16D08EA0000704782
:10589000064606F15C043068B4F80480C569014628
:1058A000D1F800908768E16A22297047680708D517
:1058B000F90706D5326804201062206B40F0020020
:1058C0002063206B7047306800F1080252E8001F27
:1058D00000F1080821F0805148E800100028F2D1BA
:1058E0007047326802201062206B40F00400206391
:1058F0007047B2656088411E61803068C56915F0E7
:10590000070F7047316851E8001F326841F02001ED
:1059100042E800100028F5D17047306850E8001FB9
:10592000024621F0100142E800100028F5D130684D
:10593000C169CA067047316851E8001F326821F416
:10594000807142E800100028F5D1306800F10801AC
:1059500000F1080351E8001F0748014043E8001028
:105960000028F2D12020E062002161612069012835
:105970007047000000FD0F00FEFFFFEF115600080A
:105980006156000801210162206B40F00100206394
:105990007047000010B5564C564820604FF4E13176
:1059A0000C20002260616160A260E2602261A2615D
:1059B000E26122626262A2622046FFF761F808B1EA
:1059C000FDF718FC0021204600F0EAFB08B1FDF7C6
:1059D00011FC0021204600F0EEFB08B1FDF70AFCA7
:1059E000204600F0BCFB18B1BDE81040FDF702BC3A
:1059F00010BD38B594B004461422002101A8FDF76B
:105A0000ECFC3822002106A8FDF7E7FC20683949A4
:105A1000884251D1022238490692089106A8FEF721
:105A2000E9FD08B1FDF7E6FB3448354DC16841F4A6
:105A30000031C160C16801F4003100910099026831
:105A400042F0010202600C21006800F001000090A9
:105A50000222009801910292002103910322072162
:105A60000591049201A94FF09040FDF7EBFC254809
:105A700028601421696000201022E860802168619C
:105A8000A861E8612862AA602961284600F03EF812
:105A900008B1FDF7AFFB1021284600F0FDF908B171
:105AA000FDF7A8FBA567AC62002202212520FDF7C7
:105AB000BDFB2520FDF7D8FB15B030BD10B5044661
:105AC0000C492068884211D10F48026822F4003244
:105AD00002600C214FF09040FDF77BFDA06F00F0BD
